{
  "abi": [
    {
      "inputs": [
        {
          "internalType": "contract ERC20",
          "name": "_token",
          "type": "address"
        },
        {
          "internalType": "address",
          "name": "_owner",
          "type": "address"
        },
        {
          "internalType": "address",
          "name": "_aaveLendingPoolAddress",
          "type": "address"
        },
        {
          "internalType": "address",
          "name": "_aaveRewards",
          "type": "address"
        },
        {
          "internalType": "uint256",
          "name": "_targetFloatPercent",
          "type": "uint256"
        }
      ],
      "stateMutability": "nonpayable",
      "type": "constructor"
    },
    {
      "anonymous": false,
      "inputs": [
        {
          "indexed": true,
          "internalType": "address",
          "name": "owner",
          "type": "address"
        },
        {
          "indexed": true,
          "internalType": "address",
          "name": "spender",
          "type": "address"
        },
        {
          "indexed": false,
          "internalType": "uint256",
          "name": "amount",
          "type": "uint256"
        }
      ],
      "name": "Approval",
      "type": "event"
    },
    {
      "anonymous": false,
      "inputs": [
        {
          "indexed": true,
          "internalType": "address",
          "name": "caller",
          "type": "address"
        },
        {
          "indexed": true,
          "internalType": "address",
          "name": "owner",
          "type": "address"
        },
        {
          "indexed": false,
          "internalType": "uint256",
          "name": "assets",
          "type": "uint256"
        },
        {
          "indexed": false,
          "internalType": "uint256",
          "name": "shares",
          "type": "uint256"
        }
      ],
      "name": "Deposit",
      "type": "event"
    },
    {
      "anonymous": false,
      "inputs": [
        {
          "indexed": true,
          "internalType": "address",
          "name": "user",
          "type": "address"
        },
        {
          "indexed": true,
          "internalType": "address",
          "name": "newOwner",
          "type": "address"
        }
      ],
      "name": "OwnershipTransferred",
      "type": "event"
    },
    {
      "anonymous": false,
      "inputs": [
        {
          "indexed": true,
          "internalType": "address",
          "name": "from",
          "type": "address"
        },
        {
          "indexed": true,
          "internalType": "address",
          "name": "to",
          "type": "address"
        },
        {
          "indexed": false,
          "internalType": "uint256",
          "name": "amount",
          "type": "uint256"
        }
      ],
      "name": "Transfer",
      "type": "event"
    },
    {
      "anonymous": false,
      "inputs": [
        {
          "indexed": true,
          "internalType": "address",
          "name": "caller",
          "type": "address"
        },
        {
          "indexed": true,
          "internalType": "address",
          "name": "receiver",
          "type": "address"
        },
        {
          "indexed": true,
          "internalType": "address",
          "name": "owner",
          "type": "address"
        },
        {
          "indexed": false,
          "internalType": "uint256",
          "name": "assets",
          "type": "uint256"
        },
        {
          "indexed": false,
          "internalType": "uint256",
          "name": "shares",
          "type": "uint256"
        }
      ],
      "name": "Withdraw",
      "type": "event"
    },
    {
      "inputs": [],
      "name": "DOMAIN_SEPARATOR",
      "outputs": [
        {
          "internalType": "bytes32",
          "name": "",
          "type": "bytes32"
        }
      ],
      "stateMutability": "view",
      "type": "function"
    },
    {
      "inputs": [
        {
          "internalType": "address",
          "name": "",
          "type": "address"
        },
        {
          "internalType": "address",
          "name": "",
          "type": "address"
        }
      ],
      "name": "allowance",
      "outputs": [
        {
          "internalType": "uint256",
          "name": "",
          "type": "uint256"
        }
      ],
      "stateMutability": "view",
      "type": "function"
    },
    {
      "inputs": [
        {
          "internalType": "address",
          "name": "spender",
          "type": "address"
        },
        {
          "internalType": "uint256",
          "name": "amount",
          "type": "uint256"
        }
      ],
      "name": "approve",
      "outputs": [
        {
          "internalType": "bool",
          "name": "",
          "type": "bool"
        }
      ],
      "stateMutability": "nonpayable",
      "type": "function"
    },
    {
      "inputs": [],
      "name": "asset",
      "outputs": [
        {
          "internalType": "contract ERC20",
          "name": "",
          "type": "address"
        }
      ],
      "stateMutability": "view",
      "type": "function"
    },
    {
      "inputs": [
        {
          "internalType": "address",
          "name": "",
          "type": "address"
        }
      ],
      "name": "balanceOf",
      "outputs": [
        {
          "internalType": "uint256",
          "name": "",
          "type": "uint256"
        }
      ],
      "stateMutability": "view",
      "type": "function"
    },
    {
      "inputs": [
        {
          "internalType": "address[]",
          "name": "_assets",
          "type": "address[]"
        },
        {
          "internalType": "address",
          "name": "_to",
          "type": "address"
        }
      ],
      "name": "claimAaveRewards",
      "outputs": [],
      "stateMutability": "nonpayable",
      "type": "function"
    },
    {
      "inputs": [
        {
          "internalType": "uint256",
          "name": "amount",
          "type": "uint256"
        }
      ],
      "name": "claimFees",
      "outputs": [],
      "stateMutability": "nonpayable",
      "type": "function"
    },
    {
      "inputs": [
        {
          "internalType": "uint256",
          "name": "shares",
          "type": "uint256"
        }
      ],
      "name": "convertToAssets",
      "outputs": [
        {
          "internalType": "uint256",
          "name": "",
          "type": "uint256"
        }
      ],
      "stateMutability": "view",
      "type": "function"
    },
    {
      "inputs": [
        {
          "internalType": "uint256",
          "name": "assets",
          "type": "uint256"
        }
      ],
      "name": "convertToShares",
      "outputs": [
        {
          "internalType": "uint256",
          "name": "",
          "type": "uint256"
        }
      ],
      "stateMutability": "view",
      "type": "function"
    },
    {
      "inputs": [],
      "name": "decimals",
      "outputs": [
        {
          "internalType": "uint8",
          "name": "",
          "type": "uint8"
        }
      ],
      "stateMutability": "view",
      "type": "function"
    },
    {
      "inputs": [
        {
          "internalType": "uint256",
          "name": "assets",
          "type": "uint256"
        },
        {
          "internalType": "address",
          "name": "receiver",
          "type": "address"
        }
      ],
      "name": "deposit",
      "outputs": [
        {
          "internalType": "uint256",
          "name": "shares",
          "type": "uint256"
        }
      ],
      "stateMutability": "nonpayable",
      "type": "function"
    },
    {
      "inputs": [],
      "name": "harvest",
      "outputs": [],
      "stateMutability": "nonpayable",
      "type": "function"
    },
    {
      "inputs": [
        {
          "internalType": "address",
          "name": "",
          "type": "address"
        }
      ],
      "name": "maxDeposit",
      "outputs": [
        {
          "internalType": "uint256",
          "name": "",
          "type": "uint256"
        }
      ],
      "stateMutability": "view",
      "type": "function"
    },
    {
      "inputs": [
        {
          "internalType": "address",
          "name": "",
          "type": "address"
        }
      ],
      "name": "maxMint",
      "outputs": [
        {
          "internalType": "uint256",
          "name": "",
          "type": "uint256"
        }
      ],
      "stateMutability": "view",
      "type": "function"
    },
    {
      "inputs": [
        {
          "internalType": "address",
          "name": "owner",
          "type": "address"
        }
      ],
      "name": "maxRedeem",
      "outputs": [
        {
          "internalType": "uint256",
          "name": "",
          "type": "uint256"
        }
      ],
      "stateMutability": "view",
      "type": "function"
    },
    {
      "inputs": [
        {
          "internalType": "address",
          "name": "owner",
          "type": "address"
        }
      ],
      "name": "maxWithdraw",
      "outputs": [
        {
          "internalType": "uint256",
          "name": "",
          "type": "uint256"
        }
      ],
      "stateMutability": "view",
      "type": "function"
    },
    {
      "inputs": [
        {
          "internalType": "uint256",
          "name": "shares",
          "type": "uint256"
        },
        {
          "internalType": "address",
          "name": "receiver",
          "type": "address"
        }
      ],
      "name": "mint",
      "outputs": [
        {
          "internalType": "uint256",
          "name": "assets",
          "type": "uint256"
        }
      ],
      "stateMutability": "nonpayable",
      "type": "function"
    },
    {
      "inputs": [],
      "name": "name",
      "outputs": [
        {
          "internalType": "string",
          "name": "",
          "type": "string"
        }
      ],
      "stateMutability": "view",
      "type": "function"
    },
    {
      "inputs": [
        {
          "internalType": "address",
          "name": "",
          "type": "address"
        }
      ],
      "name": "nonces",
      "outputs": [
        {
          "internalType": "uint256",
          "name": "",
          "type": "uint256"
        }
      ],
      "stateMutability": "view",
      "type": "function"
    },
    {
      "inputs": [],
      "name": "owner",
      "outputs": [
        {
          "internalType": "address",
          "name": "",
          "type": "address"
        }
      ],
      "stateMutability": "view",
      "type": "function"
    },
    {
      "inputs": [
        {
          "internalType": "address",
          "name": "owner",
          "type": "address"
        },
        {
          "internalType": "address",
          "name": "spender",
          "type": "address"
        },
        {
          "internalType": "uint256",
          "name": "value",
          "type": "uint256"
        },
        {
          "internalType": "uint256",
          "name": "deadline",
          "type": "uint256"
        },
        {
          "internalType": "uint8",
          "name": "v",
          "type": "uint8"
        },
        {
          "internalType": "bytes32",
          "name": "r",
          "type": "bytes32"
        },
        {
          "internalType": "bytes32",
          "name": "s",
          "type": "bytes32"
        }
      ],
      "name": "permit",
      "outputs": [],
      "stateMutability": "nonpayable",
      "type": "function"
    },
    {
      "inputs": [
        {
          "internalType": "uint256",
          "name": "assets",
          "type": "uint256"
        }
      ],
      "name": "previewDeposit",
      "outputs": [
        {
          "internalType": "uint256",
          "name": "",
          "type": "uint256"
        }
      ],
      "stateMutability": "view",
      "type": "function"
    },
    {
      "inputs": [
        {
          "internalType": "uint256",
          "name": "shares",
          "type": "uint256"
        }
      ],
      "name": "previewMint",
      "outputs": [
        {
          "internalType": "uint256",
          "name": "",
          "type": "uint256"
        }
      ],
      "stateMutability": "view",
      "type": "function"
    },
    {
      "inputs": [
        {
          "internalType": "uint256",
          "name": "shares",
          "type": "uint256"
        }
      ],
      "name": "previewRedeem",
      "outputs": [
        {
          "internalType": "uint256",
          "name": "",
          "type": "uint256"
        }
      ],
      "stateMutability": "view",
      "type": "function"
    },
    {
      "inputs": [
        {
          "internalType": "uint256",
          "name": "assets",
          "type": "uint256"
        }
      ],
      "name": "previewWithdraw",
      "outputs": [
        {
          "internalType": "uint256",
          "name": "",
          "type": "uint256"
        }
      ],
      "stateMutability": "view",
      "type": "function"
    },
    {
      "inputs": [
        {
          "internalType": "uint256",
          "name": "shares",
          "type": "uint256"
        },
        {
          "internalType": "address",
          "name": "receiver",
          "type": "address"
        },
        {
          "internalType": "address",
          "name": "owner",
          "type": "address"
        }
      ],
      "name": "redeem",
      "outputs": [
        {
          "internalType": "uint256",
          "name": "assets",
          "type": "uint256"
        }
      ],
      "stateMutability": "nonpayable",
      "type": "function"
    },
    {
      "inputs": [
        {
          "internalType": "uint256",
          "name": "newTargetFloatPercent",
          "type": "uint256"
        }
      ],
      "name": "setTargetFloatPercent",
      "outputs": [],
      "stateMutability": "nonpayable",
      "type": "function"
    },
    {
      "inputs": [],
      "name": "strategyBalance",
      "outputs": [
        {
          "internalType": "uint256",
          "name": "",
          "type": "uint256"
        }
      ],
      "stateMutability": "view",
      "type": "function"
    },
    {
      "inputs": [],
      "name": "symbol",
      "outputs": [
        {
          "internalType": "string",
          "name": "",
          "type": "string"
        }
      ],
      "stateMutability": "view",
      "type": "function"
    },
    {
      "inputs": [],
      "name": "targetFloatPercent",
      "outputs": [
        {
          "internalType": "uint256",
          "name": "",
          "type": "uint256"
        }
      ],
      "stateMutability": "view",
      "type": "function"
    },
    {
      "inputs": [],
      "name": "totalAssets",
      "outputs": [
        {
          "internalType": "uint256",
          "name": "totalUnderlyingHeld",
          "type": "uint256"
        }
      ],
      "stateMutability": "view",
      "type": "function"
    },
    {
      "inputs": [],
      "name": "totalFloat",
      "outputs": [
        {
          "internalType": "uint256",
          "name": "",
          "type": "uint256"
        }
      ],
      "stateMutability": "view",
      "type": "function"
    },
    {
      "inputs": [],
      "name": "totalHoldings",
      "outputs": [
        {
          "internalType": "uint256",
          "name": "",
          "type": "uint256"
        }
      ],
      "stateMutability": "view",
      "type": "function"
    },
    {
      "inputs": [],
      "name": "totalSupply",
      "outputs": [
        {
          "internalType": "uint256",
          "name": "",
          "type": "uint256"
        }
      ],
      "stateMutability": "view",
      "type": "function"
    },
    {
      "inputs": [
        {
          "internalType": "address",
          "name": "to",
          "type": "address"
        },
        {
          "internalType": "uint256",
          "name": "amount",
          "type": "uint256"
        }
      ],
      "name": "transfer",
      "outputs": [
        {
          "internalType": "bool",
          "name": "",
          "type": "bool"
        }
      ],
      "stateMutability": "nonpayable",
      "type": "function"
    },
    {
      "inputs": [
        {
          "internalType": "address",
          "name": "from",
          "type": "address"
        },
        {
          "internalType": "address",
          "name": "to",
          "type": "address"
        },
        {
          "internalType": "uint256",
          "name": "amount",
          "type": "uint256"
        }
      ],
      "name": "transferFrom",
      "outputs": [
        {
          "internalType": "bool",
          "name": "",
          "type": "bool"
        }
      ],
      "stateMutability": "nonpayable",
      "type": "function"
    },
    {
      "inputs": [
        {
          "internalType": "address",
          "name": "newOwner",
          "type": "address"
        }
      ],
      "name": "transferOwnership",
      "outputs": [],
      "stateMutability": "nonpayable",
      "type": "function"
    },
    {
      "inputs": [
        {
          "internalType": "uint256",
          "name": "assets",
          "type": "uint256"
        },
        {
          "internalType": "address",
          "name": "receiver",
          "type": "address"
        },
        {
          "internalType": "address",
          "name": "owner",
          "type": "address"
        }
      ],
      "name": "withdraw",
      "outputs": [
        {
          "internalType": "uint256",
          "name": "shares",
          "type": "uint256"
        }
      ],
      "stateMutability": "nonpayable",
      "type": "function"
    },
    {
      "stateMutability": "payable",
      "type": "receive"
    }
  ],
  "bytecode": {
    "object": "0x61016060405260016007553480156200001757600080fd5b5060405162002a7838038062002a788339810160408190526200003a916200025a565b83856040518060400160405280600a81526020016914dbdb1a5915985d5b1d60b21b8152506040518060400160405280600381526020016229a7ab60e91b8152508181846001600160a01b031663313ce5676040518163ffffffff1660e01b8152600401602060405180830381865afa158015620000bc573d6000803e3d6000fd5b505050506040513d601f19601f82011682018060405250810190620000e29190620002ce565b6000620000f084826200039f565b506001620000ff83826200039f565b5060ff81166080524660a05262000115620001a5565b60c052505050506001600160a01b0391821660e05250600680546001600160a01b03191691831691821790556040516000907f8be0079c531659141344cd1fd0a4f28419497f9722a3daafe3b4186f6b6457e0908290a3506001600160a01b0380841661012052821661014052600a818155608051620001959162000580565b61010052506200060f9350505050565b60007f8b73c3c69bb8fe3d512ecc4cf759cc79239f7b179b0ffacaa9a75d522b39400f6000604051620001d9919062000591565b6040805191829003822060208301939093528101919091527fc89efdaa54c0f20c7adf612882df0950f5a951637e0307cdcb4c672f298b8bc660608201524660808201523060a082015260c00160405160208183030381529060405280519060200120905090565b6001600160a01b03811681146200025757600080fd5b50565b600080600080600060a086880312156200027357600080fd5b8551620002808162000241565b6020870151909550620002938162000241565b6040870151909450620002a68162000241565b6060870151909350620002b98162000241565b80925050608086015190509295509295909350565b600060208284031215620002e157600080fd5b815160ff81168114620002f357600080fd5b9392505050565b634e487b7160e01b600052604160045260246000fd5b600181811c908216806200032557607f821691505b6020821081036200034657634e487b7160e01b600052602260045260246000fd5b50919050565b601f8211156200039a57600081815260208120601f850160051c81016020861015620003755750805b601f850160051c820191505b81811015620003965782815560010162000381565b5050505b505050565b81516001600160401b03811115620003bb57620003bb620002fa565b620003d381620003cc845462000310565b846200034c565b602080601f8311600181146200040b5760008415620003f25750858301515b600019600386901b1c1916600185901b17855562000396565b600085815260208120601f198616915b828110156200043c578886015182559484019460019091019084016200041b565b50858210156200045b5787850151600019600388901b60f8161c191681555b5050505050600190811b01905550565b634e487b7160e01b600052601160045260246000fd5b600181815b80851115620004c2578160001904821115620004a657620004a66200046b565b80851615620004b457918102915b93841c939080029062000486565b509250929050565b600082620004db575060016200057a565b81620004ea575060006200057a565b81600181146200050357600281146200050e576200052e565b60019150506200057a565b60ff8411156200052257620005226200046b565b50506001821b6200057a565b5060208310610133831016604e8410600b841016171562000553575081810a6200057a565b6200055f838362000481565b80600019048211156200057657620005766200046b565b0290505b92915050565b6000620002f360ff841683620004ca565b6000808354620005a18162000310565b60018281168015620005bc5760018114620005d25762000603565b60ff198416875282151583028701945062000603565b8760005260208060002060005b85811015620005fa5781548a820152908401908201620005df565b50505082870194505b50929695505050505050565b60805160a05160c05160e051610100516101205161014051612389620006ef6000396000610bd8015260008181610a5201528181611753015281816117a80152818161182001528181611ab80152611baa015260008181610b290152610b4d0152600081816103a801528181610a2101528181610cb701528181610d5101528181610dde01528181610f0a0152818161103a015281816111860152818161173101528181611786015281816117e401528181611a8301528181611b750152611c6b015260006109af0152600061097f0152600061034d01526123896000f3fe6080604052600436106102295760003560e01c80638da5cb5b11610123578063c43f754a116100ab578063d905777e1161006f578063d905777e14610675578063dd62ed3e146106ab578063e9ec2e99146106e3578063ef8b30f7146106f9578063f2fde38b1461071957600080fd5b8063c43f754a146105ff578063c63d75b6146103e2578063c6e6f59214610615578063ce96cb7714610635578063d505accf1461065557600080fd5b8063ac68a748116100f2578063ac68a7481461055f578063b3d7f6b91461057f578063b460af941461059f578063ba087652146105bf578063bd662f88146105df57600080fd5b80638da5cb5b146104ea57806394bf804d1461050a57806395d89b411461052a578063a9059cbb1461053f57600080fd5b80633644e515116101b15780635bb8f6f8116101755780635bb8f6f81461043b5780636e553f651461045b57806370a082311461047b5780637ecebe00146104a8578063841219e5146104d557600080fd5b80633644e5151461038157806338d52e0f14610396578063402d267d146103e25780634641257d146104045780634cdad5061461041b57600080fd5b80630a28a477116101f85780630a28a477146102cf57806318160ddd146102ef5780631c6934781461030557806323b872dd1461031b578063313ce5671461033b57600080fd5b806301e1d1141461023557806306fdde031461025d57806307a2d13a1461027f578063095ea7b31461029f57600080fd5b3661023057005b600080fd5b34801561024157600080fd5b5061024a610739565b6040519081526020015b60405180910390f35b34801561026957600080fd5b50610272610753565b6040516102549190611cff565b34801561028b57600080fd5b5061024a61029a366004611d4d565b6107e1565b3480156102ab57600080fd5b506102bf6102ba366004611d7b565b61080e565b6040519015158152602001610254565b3480156102db57600080fd5b5061024a6102ea366004611d4d565b61087b565b3480156102fb57600080fd5b5061024a60025481565b34801561031157600080fd5b5061024a600a5481565b34801561032757600080fd5b506102bf610336366004611da7565b61089b565b34801561034757600080fd5b5061036f7f000000000000000000000000000000000000000000000000000000000000000081565b60405160ff9091168152602001610254565b34801561038d57600080fd5b5061024a61097b565b3480156103a257600080fd5b506103ca7f000000000000000000000000000000000000000000000000000000000000000081565b6040516001600160a01b039091168152602001610254565b3480156103ee57600080fd5b5061024a6103fd366004611de8565b5060001990565b34801561041057600080fd5b506104196109d1565b005b34801561042757600080fd5b5061024a610436366004611d4d565b610b8c565b34801561044757600080fd5b50610419610456366004611e05565b610b97565b34801561046757600080fd5b5061024a610476366004611e8b565b610c5f565b34801561048757600080fd5b5061024a610496366004611de8565b60036020526000908152604090205481565b3480156104b457600080fd5b5061024a6104c3366004611de8565b60056020526000908152604090205481565b3480156104e157600080fd5b5061024a610d39565b3480156104f657600080fd5b506006546103ca906001600160a01b031681565b34801561051657600080fd5b5061024a610525366004611e8b565b610dc4565b34801561053657600080fd5b50610272610e60565b34801561054b57600080fd5b506102bf61055a366004611d7b565b610e6d565b34801561056b57600080fd5b5061041961057a366004611d4d565b610ed3565b34801561058b57600080fd5b5061024a61059a366004611d4d565b610f34565b3480156105ab57600080fd5b5061024a6105ba366004611ebb565b610f53565b3480156105cb57600080fd5b5061024a6105da366004611ebb565b611061565b3480156105eb57600080fd5b506104196105fa366004611d4d565b6111ad565b34801561060b57600080fd5b5061024a60095481565b34801561062157600080fd5b5061024a610630366004611d4d565b611226565b34801561064157600080fd5b5061024a610650366004611de8565b61123e565b34801561066157600080fd5b50610419610670366004611ef2565b611260565b34801561068157600080fd5b5061024a610690366004611de8565b6001600160a01b031660009081526003602052604090205490565b3480156106b757600080fd5b5061024a6106c6366004611f69565b600460209081526000928352604080842090915290825290205481565b3480156106ef57600080fd5b5061024a60085481565b34801561070557600080fd5b5061024a610714366004611d4d565b6114a4565b34801561072557600080fd5b50610419610734366004611de8565b6114af565b600854610744610d39565b61074e9082611fad565b905090565b6000805461076090611fc0565b80601f016020809104026020016040519081016040528092919081815260200182805461078c90611fc0565b80156107d95780601f106107ae576101008083540402835291602001916107d9565b820191906000526020600020905b8154815290600101906020018083116107bc57829003601f168201915b505050505081565b6002546000908015610805576108006107f8610739565b849083611525565b610807565b825b9392505050565b3360008181526004602090815260408083206001600160a01b038716808552925280832085905551919290917f8c5be1e5ebec7d5bd14f71427d1e84f3dd0314c0f7b2291e5b200ac8c7c3b925906108699086815260200190565b60405180910390a35060015b92915050565b60025460009080156108055761080081610893610739565b859190611543565b6001600160a01b038316600090815260046020908152604080832033845290915281205460001981146108f7576108d28382611ffa565b6001600160a01b03861660009081526004602090815260408083203384529091529020555b6001600160a01b0385166000908152600360205260408120805485929061091f908490611ffa565b90915550506001600160a01b0380851660008181526003602052604090819020805487019055519091871690600080516020612334833981519152906109689087815260200190565b60405180910390a3506001949350505050565b60007f000000000000000000000000000000000000000000000000000000000000000046146109ac5761074e611569565b507f000000000000000000000000000000000000000000000000000000000000000090565b6006546001600160a01b03163314610a045760405162461bcd60e51b81526004016109fb9061200d565b60405180910390fd5b600854600954604051632fe4a15f60e21b81526001600160a01b037f0000000000000000000000000000000000000000000000000000000000000000811660048301526000928492909184917f00000000000000000000000000000000000000000000000000000000000000009091169063bf92857c9060240160c060405180830381865afa158015610a9b573d6000803e3d6000fd5b505050506040513d601f19601f82011682018060405250810190610abf9190612033565b50505060098390555090915081905082610ad98286611fad565b610ae39190611ffa565b9350828111610af3576000610afd565b610afd8382611ffa565b610b079086611fad565b94506000610b1e8682670de0b6b3a7640000611525565b9050610b7e30610b797f0000000000000000000000000000000000000000000000000000000000000000610b717f00000000000000000000000000000000000000000000000000000000000000006107e1565b859190611525565b611603565b505050600891909155505050565b6000610875826107e1565b6006546001600160a01b03163314610bc15760405162461bcd60e51b81526004016109fb9061200d565b60405163bb492bf560e01b81526001600160a01b037f0000000000000000000000000000000000000000000000000000000000000000169063bb492bf590610c119086908690869060040161207d565b6000604051808303816000875af1158015610c30573d6000803e3d6000fd5b505050506040513d6000823e601f3d908101601f19168201604052610c5891908101906121b6565b5050505050565b6000610c6a836114a4565b905080600003610caa5760405162461bcd60e51b815260206004820152600b60248201526a5a45524f5f53484152455360a81b60448201526064016109fb565b610cdf6001600160a01b037f00000000000000000000000000000000000000000000000000000000000000001633308661165d565b610ce98282611603565b60408051848152602081018390526001600160a01b0384169133917fdcbc1c05240f31ff3ad067ef1ee35ce4997762752e3a095284754544f4c709d7910160405180910390a361087583826116e0565b6040516370a0823160e01b81523060048201526000907f00000000000000000000000000000000000000000000000000000000000000006001600160a01b0316906370a0823190602401602060405180830381865afa158015610da0573d6000803e3d6000fd5b505050506040513d601f19601f8201168201806040525081019061074e919061227b565b6000610dcf83610f34565b9050610e066001600160a01b037f00000000000000000000000000000000000000000000000000000000000000001633308461165d565b610e108284611603565b60408051828152602081018590526001600160a01b0384169133917fdcbc1c05240f31ff3ad067ef1ee35ce4997762752e3a095284754544f4c709d7910160405180910390a361087581846116e0565b6001805461076090611fc0565b33600090815260036020526040812080548391908390610e8e908490611ffa565b90915550506001600160a01b03831660008181526003602052604090819020805485019055513390600080516020612334833981519152906108699086815260200190565b6006546001600160a01b03163314610efd5760405162461bcd60e51b81526004016109fb9061200d565b610f316001600160a01b037f000000000000000000000000000000000000000000000000000000000000000016338361189c565b50565b600254600090801561080557610800610f4b610739565b849083611543565b6000610f5e8461087b565b9050336001600160a01b03831614610fce576001600160a01b03821660009081526004602090815260408083203384529091529020546000198114610fcc57610fa78282611ffa565b6001600160a01b03841660009081526004602090815260408083203384529091529020555b505b610fd8848261191a565b610fe28282611927565b60408051858152602081018390526001600160a01b03808516929086169133917ffbde797d201c681b91056529119e0b02407c7bb96a4a2c75c01fc9667232c8db910160405180910390a46108076001600160a01b037f000000000000000000000000000000000000000000000000000000000000000016848661189c565b6000336001600160a01b038316146110d1576001600160a01b038216600090815260046020908152604080832033845290915290205460001981146110cf576110aa8582611ffa565b6001600160a01b03841660009081526004602090815260408083203384529091529020555b505b6110da84610b8c565b90508060000361111a5760405162461bcd60e51b815260206004820152600b60248201526a5a45524f5f41535345545360a81b60448201526064016109fb565b611124818561191a565b61112e8285611927565b60408051828152602081018690526001600160a01b03808516929086169133917ffbde797d201c681b91056529119e0b02407c7bb96a4a2c75c01fc9667232c8db910160405180910390a46108076001600160a01b037f000000000000000000000000000000000000000000000000000000000000000016848361189c565b6006546001600160a01b031633146111d75760405162461bcd60e51b81526004016109fb9061200d565b670de0b6b3a76400008111156112215760405162461bcd60e51b815260206004820152600f60248201526e0a882a48e8aa8bea89e9ebe90928e9608b1b60448201526064016109fb565b600a55565b60025460009080156108055761080081610b71610739565b6001600160a01b038116600090815260036020526040812054610875906107e1565b428410156112b05760405162461bcd60e51b815260206004820152601760248201527f5045524d49545f444541444c494e455f4558504952454400000000000000000060448201526064016109fb565b600060016112bc61097b565b6001600160a01b038a811660008181526005602090815260409182902080546001810190915582517f6e71edae12b1b97f4d1f60370fef10105fa2faae0126114a169c64845d6126c98184015280840194909452938d166060840152608083018c905260a083019390935260c08083018b90528151808403909101815260e08301909152805192019190912061190160f01b6101008301526101028201929092526101228101919091526101420160408051601f198184030181528282528051602091820120600084529083018083525260ff871690820152606081018590526080810184905260a0016020604051602081039080840390855afa1580156113c8573d6000803e3d6000fd5b5050604051601f1901519150506001600160a01b038116158015906113fe5750876001600160a01b0316816001600160a01b0316145b61143b5760405162461bcd60e51b815260206004820152600e60248201526d24a72b20a624a22fa9a4a3a722a960911b60448201526064016109fb565b6001600160a01b0390811660009081526004602090815260408083208a8516808552908352928190208990555188815291928a16917f8c5be1e5ebec7d5bd14f71427d1e84f3dd0314c0f7b2291e5b200ac8c7c3b925910160405180910390a350505050505050565b600061087582611226565b6006546001600160a01b031633146114d95760405162461bcd60e51b81526004016109fb9061200d565b600680546001600160a01b0319166001600160a01b03831690811790915560405133907f8be0079c531659141344cd1fd0a4f28419497f9722a3daafe3b4186f6b6457e090600090a350565b600082600019048411830215820261153c57600080fd5b5091020490565b600082600019048411830215820261155a57600080fd5b50910281810615159190040190565b60007f8b73c3c69bb8fe3d512ecc4cf759cc79239f7b179b0ffacaa9a75d522b39400f600060405161159b9190612294565b6040805191829003822060208301939093528101919091527fc89efdaa54c0f20c7adf612882df0950f5a951637e0307cdcb4c672f298b8bc660608201524660808201523060a082015260c00160405160208183030381529060405280519060200120905090565b80600260008282546116159190611fad565b90915550506001600160a01b03821660008181526003602090815260408083208054860190555184815260008051602061233483398151915291015b60405180910390a35050565b60006040516323b872dd60e01b81528460048201528360248201528260448201526020600060648360008a5af13d15601f3d1160016000511416171691505080610c585760405162461bcd60e51b81526020600482015260146024820152731514905394d1915497d19493d357d1905253115160621b60448201526064016109fb565b60075460011461171f5760405162461bcd60e51b815260206004820152600a6024820152695245454e5452414e435960b01b60448201526064016109fb565b60026007556117796001600160a01b037f0000000000000000000000000000000000000000000000000000000000000000167f00000000000000000000000000000000000000000000000000000000000000006000611989565b6117cd6001600160a01b037f0000000000000000000000000000000000000000000000000000000000000000167f000000000000000000000000000000000000000000000000000000000000000084611989565b60405163617ba03760e01b81526001600160a01b037f00000000000000000000000000000000000000000000000000000000000000008116600483015260248201849052306044830152600060648301527f0000000000000000000000000000000000000000000000000000000000000000169063617ba03790608401600060405180830381600087803b15801561186457600080fd5b505af1158015611878573d6000803e3d6000fd5b50505050816008600082825461188e9190611fad565b909155505060016007555050565b600060405163a9059cbb60e01b8152836004820152826024820152602060006044836000895af13d15601f3d11600160005114161716915050806119145760405162461bcd60e51b815260206004820152600f60248201526e1514905394d1915497d19052531151608a1b60448201526064016109fb565b50505050565b61192382611a00565b5050565b6001600160a01b0382166000908152600360205260408120805483929061194f908490611ffa565b90915550506002805482900390556040518181526000906001600160a01b0384169060008051602061233483398151915290602001611651565b600060405163095ea7b360e01b8152836004820152826024820152602060006044836000895af13d15601f3d11600160005114161716915050806119145760405162461bcd60e51b815260206004820152600e60248201526d1054141493d59157d1905253115160921b60448201526064016109fb565b6000611a0a610d39565b905080821115611923576000611a35600a5484611a25610739565b611a2f9190611ffa565b90611a57565b90506000611a438385611ffa565b9050611914611a528383611fad565b611a6c565b60006108078383670de0b6b3a7640000611525565b604051632fe4a15f60e21b81526001600160a01b037f000000000000000000000000000000000000000000000000000000000000000081166004830152600091829182918291829182917f0000000000000000000000000000000000000000000000000000000000000000169063bf92857c9060240160c060405180830381865afa158015611aff573d6000803e3d6000fd5b505050506040513d601f19601f82011682018060405250810190611b239190612033565b9550955095509550955095506000878711611b3e5786611b40565b875b600954909150819003611b5281611ce9565b6001600160f81b0316600955604051631a4ca37b60e21b81526001600160a01b037f000000000000000000000000000000000000000000000000000000000000000081166004830152602482018490523060448301527f000000000000000000000000000000000000000000000000000000000000000016906369328dec906064016020604051808303816000875af1158015611bf3573d6000803e3d6000fd5b505050506040513d601f19601f82011682018060405250810190611c17919061227b565b15611c585760405162461bcd60e51b815260206004820152601160248201527015d2551211149055d05317d19052531151607a1b60448201526064016109fb565b50600880548990039055478015611cde577f00000000000000000000000000000000000000000000000000000000000000006001600160a01b031663d0e30db0826040518263ffffffff1660e01b81526004016000604051808303818588803b158015611cc457600080fd5b505af1158015611cd8573d6000803e3d6000fd5b50505050505b505050505050505050565b6000600160f81b8210611cfb57600080fd5b5090565b600060208083528351808285015260005b81811015611d2c57858101830151858201604001528201611d10565b506000604082860101526040601f19601f8301168501019250505092915050565b600060208284031215611d5f57600080fd5b5035919050565b6001600160a01b0381168114610f3157600080fd5b60008060408385031215611d8e57600080fd5b8235611d9981611d66565b946020939093013593505050565b600080600060608486031215611dbc57600080fd5b8335611dc781611d66565b92506020840135611dd781611d66565b929592945050506040919091013590565b600060208284031215611dfa57600080fd5b813561080781611d66565b600080600060408486031215611e1a57600080fd5b833567ffffffffffffffff80821115611e3257600080fd5b818601915086601f830112611e4657600080fd5b813581811115611e5557600080fd5b8760208260051b8501011115611e6a57600080fd5b60209283019550935050840135611e8081611d66565b809150509250925092565b60008060408385031215611e9e57600080fd5b823591506020830135611eb081611d66565b809150509250929050565b600080600060608486031215611ed057600080fd5b833592506020840135611ee281611d66565b91506040840135611e8081611d66565b600080600080600080600060e0888a031215611f0d57600080fd5b8735611f1881611d66565b96506020880135611f2881611d66565b95506040880135945060608801359350608088013560ff81168114611f4c57600080fd5b9699959850939692959460a0840135945060c09093013592915050565b60008060408385031215611f7c57600080fd5b8235611f8781611d66565b91506020830135611eb081611d66565b634e487b7160e01b600052601160045260246000fd5b8082018082111561087557610875611f97565b600181811c90821680611fd457607f821691505b602082108103611ff457634e487b7160e01b600052602260045260246000fd5b50919050565b8181038181111561087557610875611f97565b6020808252600c908201526b15539055551213d49256915160a21b604082015260600190565b60008060008060008060c0878903121561204c57600080fd5b865195506020870151945060408701519350606087015192506080870151915060a087015190509295509295509295565b6040808252810183905260008460608301825b868110156120c05782356120a381611d66565b6001600160a01b0316825260209283019290910190600101612090565b506001600160a01b03949094166020939093019290925250909392505050565b634e487b7160e01b600052604160045260246000fd5b604051601f8201601f1916810167ffffffffffffffff8111828210171561211f5761211f6120e0565b604052919050565b600067ffffffffffffffff821115612141576121416120e0565b5060051b60200190565b600082601f83011261215c57600080fd5b8151602061217161216c83612127565b6120f6565b82815260059290921b8401810191818101908684111561219057600080fd5b8286015b848110156121ab5780518352918301918301612194565b509695505050505050565b600080604083850312156121c957600080fd5b825167ffffffffffffffff808211156121e157600080fd5b818501915085601f8301126121f557600080fd5b8151602061220561216c83612127565b82815260059290921b8401810191818101908984111561222457600080fd5b948201945b8386101561224b57855161223c81611d66565b82529482019490820190612229565b9188015191965090935050508082111561226457600080fd5b506122718582860161214b565b9150509250929050565b60006020828403121561228d57600080fd5b5051919050565b600080835481600182811c9150808316806122b057607f831692505b602080841082036122cf57634e487b7160e01b86526022600452602486fd5b8180156122e357600181146122f857612325565b60ff1986168952841515850289019650612325565b60008a81526020902060005b8681101561231d5781548b820152908501908301612304565b505084890196505b50949897505050505050505056feddf252ad1be2c89b69c2b068fc378daa952ba7f163c4a11628f55a4df523b3efa26469706673582212202ed1da7e4b3e3764c1f66359ee91676d0428d3920734501c51c796dddf3c7b5164736f6c63430008120033",
    "linkReferences": {}
  },
  "methodIdentifiers": {
    "DOMAIN_SEPARATOR()": "3644e515",
    "allowance(address,address)": "dd62ed3e",
    "approve(address,uint256)": "095ea7b3",
    "asset()": "38d52e0f",
    "balanceOf(address)": "70a08231",
    "claimAaveRewards(address[],address)": "5bb8f6f8",
    "claimFees(uint256)": "ac68a748",
    "convertToAssets(uint256)": "07a2d13a",
    "convertToShares(uint256)": "c6e6f592",
    "decimals()": "313ce567",
    "deposit(uint256,address)": "6e553f65",
    "harvest()": "4641257d",
    "maxDeposit(address)": "402d267d",
    "maxMint(address)": "c63d75b6",
    "maxRedeem(address)": "d905777e",
    "maxWithdraw(address)": "ce96cb77",
    "mint(uint256,address)": "94bf804d",
    "name()": "06fdde03",
    "nonces(address)": "7ecebe00",
    "owner()": "8da5cb5b",
    "permit(address,address,uint256,uint256,uint8,bytes32,bytes32)": "d505accf",
    "previewDeposit(uint256)": "ef8b30f7",
    "previewMint(uint256)": "b3d7f6b9",
    "previewRedeem(uint256)": "4cdad506",
    "previewWithdraw(uint256)": "0a28a477",
    "redeem(uint256,address,address)": "ba087652",
    "setTargetFloatPercent(uint256)": "bd662f88",
    "strategyBalance()": "c43f754a",
    "symbol()": "95d89b41",
    "targetFloatPercent()": "1c693478",
    "totalAssets()": "01e1d114",
    "totalFloat()": "841219e5",
    "totalHoldings()": "e9ec2e99",
    "totalSupply()": "18160ddd",
    "transfer(address,uint256)": "a9059cbb",
    "transferFrom(address,address,uint256)": "23b872dd",
    "transferOwnership(address)": "f2fde38b",
    "withdraw(uint256,address,address)": "b460af94"
  },
  "id": 2
}